{
  "contractName": "EthSwap",
  "abi": [
    {
      "inputs": [
        {
          "internalType": "contract DevToken",
          "name": "_Token",
          "type": "address"
        }
      ],
      "stateMutability": "nonpayable",
      "type": "constructor"
    },
    {
      "anonymous": false,
      "inputs": [
        {
          "indexed": false,
          "internalType": "address",
          "name": "account",
          "type": "address"
        },
        {
          "indexed": false,
          "internalType": "address",
          "name": "token",
          "type": "address"
        },
        {
          "indexed": false,
          "internalType": "uint256",
          "name": "amount",
          "type": "uint256"
        },
        {
          "indexed": false,
          "internalType": "uint256",
          "name": "rate",
          "type": "uint256"
        }
      ],
      "name": "TokenPurchase",
      "type": "event"
    },
    {
      "anonymous": false,
      "inputs": [
        {
          "indexed": false,
          "internalType": "address",
          "name": "account",
          "type": "address"
        },
        {
          "indexed": false,
          "internalType": "address",
          "name": "token",
          "type": "address"
        },
        {
          "indexed": false,
          "internalType": "uint256",
          "name": "amount",
          "type": "uint256"
        },
        {
          "indexed": false,
          "internalType": "uint256",
          "name": "rate",
          "type": "uint256"
        }
      ],
      "name": "TokenSold",
      "type": "event"
    },
    {
      "inputs": [],
      "name": "Token",
      "outputs": [
        {
          "internalType": "contract DevToken",
          "name": "",
          "type": "address"
        }
      ],
      "stateMutability": "view",
      "type": "function",
      "constant": true
    },
    {
      "inputs": [],
      "name": "name",
      "outputs": [
        {
          "internalType": "string",
          "name": "",
          "type": "string"
        }
      ],
      "stateMutability": "view",
      "type": "function",
      "constant": true
    },
    {
      "inputs": [],
      "name": "rate",
      "outputs": [
        {
          "internalType": "uint256",
          "name": "",
          "type": "uint256"
        }
      ],
      "stateMutability": "view",
      "type": "function",
      "constant": true
    },
    {
      "inputs": [],
      "name": "getLatestPrice",
      "outputs": [
        {
          "internalType": "int256",
          "name": "",
          "type": "int256"
        }
      ],
      "stateMutability": "view",
      "type": "function",
      "constant": true
    },
    {
      "inputs": [],
      "name": "buyTokens",
      "outputs": [],
      "stateMutability": "payable",
      "type": "function",
      "payable": true
    },
    {
      "inputs": [
        {
          "internalType": "uint256",
          "name": "_amount",
          "type": "uint256"
        }
      ],
      "name": "sellToken",
      "outputs": [],
      "stateMutability": "nonpayable",
      "type": "function"
    }
  ],
  "bytecode": "0x60806040526040518060400160405280601881526020017f45746853776170204e6574776f726b2045786368616e676500000000000000008152506000908051906020019061004f92919061023a565b5034801561005c57600080fd5b50604051610bb2380380610bb28339818101604052602081101561007f57600080fd5b810190808051906020019092919050505080600160006101000a81548173ffffffffffffffffffffffffffffffffffffffff021916908373ffffffffffffffffffffffffffffffffffffffff1602179055507322b58f1ebedfca50fef632bd73368b2fda96d541600360006101000a81548173ffffffffffffffffffffffffffffffffffffffff021916908373ffffffffffffffffffffffffffffffffffffffff16021790555061013461014060201b60201c565b600281905550506102df565b600080600080600080600360009054906101000a900473ffffffffffffffffffffffffffffffffffffffff1673ffffffffffffffffffffffffffffffffffffffff1663feaf968c6040518163ffffffff1660e01b815260040160a06040518083038186803b1580156101b157600080fd5b505afa1580156101c5573d6000803e3d6000fd5b505050506040513d60a08110156101db57600080fd5b8101908080519060200190929190805190602001909291908051906020019092919080519060200190929190805190602001909291905050509450945094509450945083670de0b6b3a76400008161022f57fe5b059550505050505090565b828054600181600116156101000203166002900490600052602060002090601f016020900481019282601f1061027b57805160ff19168380011785556102a9565b828001600101855582156102a9579182015b828111156102a857825182559160200191906001019061028d565b5b5090506102b691906102ba565b5090565b6102dc91905b808211156102d85760008160009055506001016102c0565b5090565b90565b6108c4806102ee6000396000f3fe6080604052600436106100555760003560e01c806306fdde031461005a5780632397e4d7146100ea5780632c4e722e146101255780638e15f47314610150578063c24126761461017b578063d0febe4c146101d2575b600080fd5b34801561006657600080fd5b5061006f6101dc565b6040518080602001828103825283818151815260200191508051906020019080838360005b838110156100af578082015181840152602081019050610094565b50505050905090810190601f1680156100dc5780820380516001836020036101000a031916815260200191505b509250505060405180910390f35b3480156100f657600080fd5b506101236004803603602081101561010d57600080fd5b810190808035906020019092919050505061027a565b005b34801561013157600080fd5b5061013a6105ac565b6040518082815260200191505060405180910390f35b34801561015c57600080fd5b506101656105b2565b6040518082815260200191505060405180910390f35b34801561018757600080fd5b506101906106ac565b604051808273ffffffffffffffffffffffffffffffffffffffff1673ffffffffffffffffffffffffffffffffffffffff16815260200191505060405180910390f35b6101da6106d2565b005b60008054600181600116156101000203166002900480601f0160208091040260200160405190810160405280929190818152602001828054600181600116156101000203166002900480156102725780601f1061024757610100808354040283529160200191610272565b820191906000526020600020905b81548152906001019060200180831161025557829003601f168201915b505050505081565b80600160009054906101000a900473ffffffffffffffffffffffffffffffffffffffff1673ffffffffffffffffffffffffffffffffffffffff166370a08231336040518263ffffffff1660e01b8152600401808273ffffffffffffffffffffffffffffffffffffffff1673ffffffffffffffffffffffffffffffffffffffff16815260200191505060206040518083038186803b15801561031a57600080fd5b505afa15801561032e573d6000803e3d6000fd5b505050506040513d602081101561034457600080fd5b8101908080519060200190929190505050101561036057600080fd5b6000600254828161036d57fe5b0490508047101561037d57600080fd5b600160009054906101000a900473ffffffffffffffffffffffffffffffffffffffff1673ffffffffffffffffffffffffffffffffffffffff166323b872dd3330856040518463ffffffff1660e01b8152600401808473ffffffffffffffffffffffffffffffffffffffff1673ffffffffffffffffffffffffffffffffffffffff1681526020018373ffffffffffffffffffffffffffffffffffffffff1673ffffffffffffffffffffffffffffffffffffffff1681526020018281526020019350505050602060405180830381600087803b15801561045a57600080fd5b505af115801561046e573d6000803e3d6000fd5b505050506040513d602081101561048457600080fd5b8101908080519060200190929190505050503373ffffffffffffffffffffffffffffffffffffffff166108fc829081150290604051600060405180830381858888f193505050501580156104dc573d6000803e3d6000fd5b507fa8a7473f10e62cf9687e243de1c3ac8b3cbc3dd04b96826beb3a65b59538581433600160009054906101000a900473ffffffffffffffffffffffffffffffffffffffff1684600254604051808573ffffffffffffffffffffffffffffffffffffffff1673ffffffffffffffffffffffffffffffffffffffff1681526020018473ffffffffffffffffffffffffffffffffffffffff1673ffffffffffffffffffffffffffffffffffffffff16815260200183815260200182815260200194505050505060405180910390a15050565b60025481565b600080600080600080600360009054906101000a900473ffffffffffffffffffffffffffffffffffffffff1673ffffffffffffffffffffffffffffffffffffffff1663feaf968c6040518163ffffffff1660e01b815260040160a06040518083038186803b15801561062357600080fd5b505afa158015610637573d6000803e3d6000fd5b505050506040513d60a081101561064d57600080fd5b8101908080519060200190929190805190602001909291908051906020019092919080519060200190929190805190602001909291905050509450945094509450945083670de0b6b3a7640000816106a157fe5b059550505050505090565b600160009054906101000a900473ffffffffffffffffffffffffffffffffffffffff1681565b600060025434029050600160009054906101000a900473ffffffffffffffffffffffffffffffffffffffff1673ffffffffffffffffffffffffffffffffffffffff1663a9059cbb33836040518363ffffffff1660e01b8152600401808373ffffffffffffffffffffffffffffffffffffffff1673ffffffffffffffffffffffffffffffffffffffff16815260200182815260200192505050602060405180830381600087803b15801561078457600080fd5b505af1158015610798573d6000803e3d6000fd5b505050506040513d60208110156107ae57600080fd5b8101908080519060200190929190505050507f623b3804fa71d67900d064613da8f94b9617215ee90799290593e1745087ad1833600160009054906101000a900473ffffffffffffffffffffffffffffffffffffffff1683600254604051808573ffffffffffffffffffffffffffffffffffffffff1673ffffffffffffffffffffffffffffffffffffffff1681526020018473ffffffffffffffffffffffffffffffffffffffff1673ffffffffffffffffffffffffffffffffffffffff16815260200183815260200182815260200194505050505060405180910390a15056fea26469706673582212208a95149b11ecffc67795a42cfca3b4ac251413d4a6380648b802badb68e1999964736f6c63430006070033",
  "immutableReferences": {},
  "source": "pragma solidity 0.6.7;\n\nimport \"@chainlink/contracts/src/v0.6/interfaces/AggregatorV3Interface.sol\";\nimport './DevToken.sol';\n\ncontract EthSwap {\n  string public name = \"EthSwap Network Exchange\";\n  DevToken public Token;\n  uint public rate;\n  AggregatorV3Interface internal priceFeed;\n\n  event TokenPurchase(\n    address account,\n    address token,\n    uint amount,\n    uint rate\n  );\n\n  event TokenSold(\n    address account,\n    address token,\n    uint amount,\n    uint rate\n  );\n\n  constructor(DevToken _Token) public {\n    Token = _Token;\n    priceFeed = AggregatorV3Interface(0x22B58f1EbEDfCA50feF632bD73368b2FdA96D541);\n    rate = uint256(getLatestPrice());\n  }\n\n      /**\n     * Returns the latest price\n     */\n    function getLatestPrice() public view returns (int) {\n        (\n            uint80 roundID,\n            int price,\n            uint startedAt,\n            uint timeStamp,\n            uint80 answeredInRound\n        ) = priceFeed.latestRoundData();\n        // If the round is not complete yet, timestamp is 0\n        // require(timeStamp > 0, \"Round not complete\");\n        return 1e18/price;\n    }\n\n  function buyTokens() public payable {\n    /* Calcaulate no. of tokens to buy\n     Ether Amount * Redemption rate */\n    uint tokenAmount = msg.value * rate;\n    Token.transfer(msg.sender, tokenAmount);\n\n    // Emit an event\n    emit TokenPurchase(msg.sender, address(Token), tokenAmount, rate);\n  }\n\n  function sellToken(uint _amount) public {\n    // User can't sell more tokens than they have\n    require(Token.balanceOf(msg.sender) >= _amount);\n\n    //Calculate the amount of the ether to redeem\n    uint etherAmount =  _amount / rate;\n\n    // Require that EthSwap has enough ether\n    require(address(this).balance >= etherAmount);\n\n    // Perform Sale\n    Token.transferFrom(msg.sender, address(this), _amount);\n    msg.sender.transfer(etherAmount);\n\n    //Emit an event\n    emit TokenSold(msg.sender, address(Token), _amount, rate);\n  }\n}\n",
  "sourcePath": "/home/dev/Workspace/EthSwap/src/contracts/EthSwap.sol",
  "compiler": {
    "name": "solc",
    "version": "0.6.7+commit.b8d736ae.Emscripten.clang"
  },
  "schemaVersion": "3.2.4",
  "updatedAt": "2021-01-22T13:39:12.962Z",
  "networkType": "ethereum",
  "devdoc": {
    "methods": {}
  },
  "userdoc": {
    "methods": {
      "getLatestPrice()": {
        "notice": "Returns the latest price"
      }
    }
  }
}